S123E80034168EE83CF6DF8C58BDE883AD95359634148DEC27FC8EE830F6DF8C58AD953550
S123E820948DED34148EE836F6DF8D58AD953594E842E84DE858E863E867E872E87DE883AA
S123E840E889B6E790850127F9B6E79139B6E7A0850127F9B6E7A139B6E7E0850127EEB6E1
S123E860E7A13917007C39F6E7A0C50227F9B7E7A139F6E7E0C50227EEB7E7A139B6E790ED
S123E880840139B6E7A0840139B6E7E084013934168603B7E7D14FB7E7D2B7E7D3B7E7D49C
S123E8A05FF7E7D38D165CC11826F67FDFB87FDFB77FDFC77FE7D27FE7D335967FDFB87F2F
S123E8C0E7D28D077FDFB87FE7D2393406F6DFB88620F7E7D2F7DFB8B7E7D05CC15026F2C2
S123E8E0358634767DDFC72705BDE9B720278120252585802707C630F7E7D12005C603F714
S123E900E7D1847FB7E7D0B6DFB84C81502706B7DFB8B7E7D235F634168EE92F48AD96B619
S123E920DFB8B7E7D2B6DFB7B7E7D3351620E6E99DE99DE99DE99DE99DE99DE99DF43EE9F9
S123E9406FE979E985E99EE88FE9B3E9B7E9B0E99DE99DE99DE99DE99DE99DE9DFE9E5E9FE
S123E9609DE8CBE8BCE99DE99DE99DE99DE99DB6DFB84A2B03B7DFB839B6DFB84C81502724
S123E98003B7DFB839B6DFB74C8118260D8D5C8617B7DFB7B7E7D37EE8BCB7DFB739B6DF04
S123E9A0B74A2AF68D524FB7DFB7B7E7D37EE8BC7FDFB77FDFB839F6DFC75D2606C602F7DC
S123E9C0DFC739C102260C8020B7DFB7B7E7D37ADFC7398020B7DFB8B7E7D27ADFC739866B
S123E9E030B7E7D1398603B7E7D139B6E7D44C811826014FB7E7D439B6E7D44A2A0286170F
S123EA00B7E7D439EA5FEABEEAA4EAA4EAA4EAA4EAA4EA54EA54EA54EAE8EAF4EB2BEB2BFA
S123EA20EB2BEB2BEB2BEA54EA54EA54EA54EA54EA54EA54EA54EA54EA54EA54EA54EA546A
S123EA40EB54EBC3EC23EC28EC28EC28EC28EA54EA54EA545F5D1CFE39C6405D1A013934B2
S123EA602034108D318B02B7E7C0F7E7C18E0000108EDE805FA680A7A05A26F94FB7E7C06A
S123EA80B7E7C13510108EDE805FA6A0A7805A26F9352016FFBE5A3404C60A3D1F0135046D
S123EAA03A1F10394FC6018EDE808DB3FCDE801083AA55260316FF9CC6805D1A013934027B
S123EAC0B6E7808440260535027EEA59350234203406108EDE805FA680A7A05A26F93506ED
S123EAE017FFB38B02160022342034101700578B0416FF7334203406108EDE805FA680A7B1
S123EB00A05A26F935068D3E8B04B7E7C0F7E7C18E0000108EDE805FA6A0A7805A26F94F28
S123EB20B7E7C0B7E7C1352016FF294FC6018EDE8017FFB4FCDE801083AA55260316FF1477
S123EB40C6805D1A01395A3404C6243D1F0135043A1F1039340434027FDFCB7FDFCC86734C
S123EB60BDEC5F244CB6DF8EBDEC5F24443502BDEC5F243D3502BDEC5F24365FBDEC4124E0
S123EB8030A780BBDFCCB7DFCC24037CDFCB5A26EBBDEC41241B3402BDEC4124141F89353C
S123EBA00210B3DFCB260E8606BDEC5F24035F200DC61020098615BDEC5F24F5C609F7DF07
S123EBC0CB5D39340434027FDFCB7FDFCC8672BDEC5F24DDB6DF8EBDEC5F24D53502BDEC0A
S123EBE05F24CE3502BDEC5F24C75FA680BDEC5F24BFBBDFCCB7DFCC24037CDFCB5A26EBA6
S123EC00B6DFCBBDEC5F24A9B6DFCCBDEC5F24A1BDEC41249C810626035F2002C60AF7DF0C
S123EC20CB5D39F6DFCB5D398651BDEC5F240CBDEC412407810626035F2004C6101A015D94
S123EC403934308E03E8108E04E2B6E7A047250A313F26F6301F26EE35B0B6E7A135B03438
S123EC603034028E03E8108E04E2B6E7A04747250C313F26F5301F26ED350235B03502B73A
S123EC80E7A135B06E9FDFA16E9FDFA36E9FDFA58D072701396E9FDFA73430E603F7DF8E1D
S123ECA08EDF9DA68581FF26083530C60F5D1A0139C6143D8EEA04308B108EDFA1C614A696
S123ECC080A7A05A26F935306E9FDFA96E9FDFAB6E9FDFAD4FB7DF8E8EDF8B8DBC2504AD3C
S123ECE09FDFAFB6DF8E4C810426EA396E9FDFB16E9FDFB33402B6E7808A03B7E7808D2CB3
S123ED0084FEB7E7808D2584FDB7E7808D1E35823402B6E78084FEB7E7808D108A02B7E7E2
S123ED20808D098A01B7E7808D0235823436108E00293D313F26FB35B63414F6E7808E00AD
S123ED4008482504C4FE2002CA01F7E7808DDDCA02F7E7808DD6C4FDF7E7808DCF301F2642
S123ED60E035943414F6E780CA01F7E7808DBD4F8E000848CA03F7E7808DB1F6E780C40116
S123ED8027028A01F6E780CA01C4FDF7E7808D9C301F26DF35943404F6E780CA01F7E78070
S123EDA017FF89CA02F7E78017FF81C4FDF7E78017FF7935843404F6E780CA01F7E78017B3
S117EDC0FF6ACA02F7E78017FF62C4FDF7E78017FF5A3584E8
S123F000F0A4F22CE810E821E800E823F2F9F2EDF300F269F31DF32EF339F35EF37DF38796
S123F020F385F34FF34BF389F38EF305F311EC84EC88EC8CEC90EC99ECCCECD0ECD4ECEC72
S123F040ECF0F3EDF419F3F1F41DF43EF269F269F269F269F269F269F269F269F269F2692E
S123F060F269F269F269F269F269F269F269F269F269F269F269F269F269F269F269E8420D
S123F080F269F269F269F269F269F269F269F3B1F3BCF3D5ECF4ED10ED39ED63ED96EDB55C
S123F0A0EC5FEC41B6DF9C81AA27104F8EDF80A7808CE00026F986AAB7DF9C10CEDE6F10B6
S123F0C0FFDF80108EF25E8EDF8210AF808CDF8C26F84FB7E7C0B7E7C18603B7E780BEF23A
S123F0E034BFDF98B6E780444444441F89C401F7DF8C1F8954C401F7DF8D7FDFB5C60EBDDE
S123F100F3F181AA102700A586AAC60EBDF41DC60EBDF3F181AA270886FFB7DFB516008DEC
S123F1208EF13FBDF3008E0BB8BDF31D8EF16E5FA680BDF41D5CC14026F67FDFB5206E07DE
S123F140070707506F776572206661696C75726520696E205254432C2072656C6F61646955
S123F1606E672064656661756C74730A0D040000090231010500000000000000AA770001BF
S123F180FF0308003A1850000008004E000100000000000000000000000000000000000068
S123F1A000000000000000000000000000CC001BFDE7A2FDE7E27DDFB510260025C60FBD1A
S123F1C0F3F13402840F8EFF5EC6073D3085EC05FDE7A23502444444C6073D3085EC05FDAD
S123F1E0E7E217F6AA8EDF9D8600A7808601A78086FFA7808603A7807DDFB5260F8EDF9D7A
S123F200C610BDF3F1A7805CC11426F6B6E7802A1517F8902703170AE617F90F102709472D
S123F2201707F21609418EF27EBDF2F98EF2A8BDF2F9BDE821BDF3B11F89BDE821BDF3B1EE
S123F2401E891F028EF46110AC8126026E943002A68481FF26F18EF2ADBDF2F920CE8EF262
S123F260C2BDF3001A507EF0A4396E9FDF826E9FDF846E9FDF866E9FDF886E9FDF8A0A0D12
S123F2802B2B2B204D6F6E30392056657220352E302020442E412E52756D62616C6C2032F4
S123F2A0303035202B2B2B040A0D3D3E04070720556E6B6E6F776E20636F6D6D616E64213C
S123F2C0200407070707070707070707554E455850454354454420494E544552555054210F
S123F2E0212121212121212121040A0D0434108EF2EA8D053590BDE823A680810426F739F4
S123F3008DEB8DF5393416B7DF918EDF918D7835963416BFDF928EDF928D6A3596343610C2
S123F3208E04E23D313F26FB301F26F335B68D091F898D051E891F013934048D21484848A6
S123F340481F898D193404ABE0358444444444840F8B3081391023F4CA8B077EE823BDE8CE
S123F360218D4E80302B0F81092F0A81112B0781162E038007398608BDE82320E1A6848D86
S123F380CAA68020CA8DF68DF486207EE8233404C608B6DF9B484848B8DF9B484879DF989C
S123F3A079DF9979DF9A79DF9B5A26E6B6DF98358481612D06817A2E0280203934043402A0
S123F3C044444444C60A3D1F983504C40FF7DF91BBDF91358434045F800A2B035C20F98BAF
S123F3E00A58585858F7DF91BBDF9135843416359617F90086D017F94017F99A1F9817F918
S123F4003817F99217F8ED86D117F92D17F98717F95117F9A017F8F8393416359634021734
S123F420F8D286D017F91217F96C1F9817F90A17F964350217F90217F95C17F8D3393412AF
S123F440B6E7808A08B7E7808E0019BDF31DB6E78084F7B7E78035924FB7E7C0B7E7C16E70
S123F460844455F7014D45F7D3504DF77C464DF6725342FEDB5349F518534FF53F4A55F48C
S123F480D04A46F4F75250F5644350F5CC4250F58D4452F614544DF856424FFB675253F99A
S123F4A0145753F9895246FA104443FD734D43FE4A4C53FC374C50FCFAFF08084A756D7088
S123F4C020746F2070726F6772616D20617420048EF4BABDF2F9BDF32E7EF45808084A7599
S123F4E06D7020746F20666C6578207761726D2073746172742E048EF4DCBDF2F98ECD039E
S123F5007EF458080853657420696E70757420706F727420746F20048EF503BDF2F9BDF3A7
S123F5205E8403B7DF8C7EF22C0808536574206F757470757420706F727420746F20048E7D
S123F540F529BDF2F9BDF35E8403B7DF8D7EF22C080852756E2070726F6772616D20667238
S123F5606F6D20048EF550BDF2F9BDF32EAF6A86FFA7E410FEDF803B08085365742062722D
S123F58065616B706F696E7420617420048EF578BDF2F9BDF32EA684B7DFCD863FA7847E77
S123F5A0F22C10FFDF80AE6A301FAF6AB6DFCDA7847EF61A0808436F6E74696E7565206645
S123F5C0726F6D205357492E2E2E2E048EF5B4BDF2F97EF5730808446973706C61792043FC
S123F5E05055207265676973746572732E040A0D434320204120204220445020582020200C
S123F60020592020202055202020504320202020530A0D048EF5D5BDF2F98EF5EEBDF2F99E
S123F6201F41BDF387BDF387BDF387BDF387BDF385BDF385BDF385BDF3858EDF80BDF38594
S123F6407EF22C080846696C6C206D656D6F7279207769746820636F6E7374616E742066CE
S123F660726F6D200420746F20042076616C756520048EF643BDF2F9BDF32E1F128EF66525
S123F680BDF2F9BDF32E34108EF66ABDF2F9BDF339A7A010ACE426F935107EF22C080848DE
S123F6A065782064756D70206F66206D656D6F72792066726F6D20042020202020302020DD
S123F6C0312020322020332020342020352020362020372020203820203920204120204226
S123F6E02020432020442020452020462020202030313233343536373839414243444546D2
S123F700048EF69DBDF2F9BDF32EBDF2ED108E0010BDF2ED34108EF6B8BDF3003510BDF230
S123F720EDBDF311C610BDF3875A2709C10826F6BDF38920F1BDF389BDF389C6103010A623
S123F7408081202D04817F2D02862EBDE8235A270220EC313F26C7BDE821810D27AF812DE4
S123F7601026FAC83089FE0020A30808506F6B65206D656D6F727920617420048EF76ABDF6
S123F780F2F9BDF32E1F128EF66ABDF2F9BDF339A7A47EF22C08084D656D6F72792065787F
S123F7A0616D696E6520616E64206D6F646966792066726F6D2004070720204E6F2072614A
S123F7C06D2061742074686174206164647265737321048EF795BDF2F9BDF32EBDF2EDBDCE
S123F7E0F311BDF387BDE821812D2604301E20EC810D27E881201026FA32BDF339A71FA1E2
S123F8001F27D98EF7B7BDF2F97EF22C080854657374206D656D6F72792066726F6D2004E4
S123F82007070A0D4572726F72206174206C6F636174696F6E20046368616E6765642074A5
S123F8406F20042054657374696E67206E6F77207769746820048EF80CBDF2F9BDF32E1F68
S123F860128EF665BDF2F9BDF32EBFDF925F8EF843BDF2F9F7DF918EDF91BDF37D1F21E74A
S123F880A4E1A4261A312110BCDF9226F25C270C8608BDE823BDE8231F1220D87EF22C8E54
S123F8A0F820BDF2F910BFDF928EDF92BDF385BDF389BDF389F7DF918EDF91BDF3878EF87C
S123F8C037BDF2F9A6A4B7DF918EDF91BDF38720CB0808526561642066726F6D20736563F9
S123F8E0746F72206F6E206472697665200420747261636B200420736563746F7220040D1A
S123F9000A07464443206572726F7220636F6465203D20048EF8D1BDF2F9BDF35EB7DF8E4E
S123F9208EDF8BBDEC998EF8EEBDF2F9BDF339B7DF8F8EF8F6BDF2F9BDF339B7DF908EF6A8
S123F94065BDF2F9BDF32EB6DF8FF6DF90BDEC841027F8D88EF8FFBDF2F9F7DF918EDF9169
S123F960BDF3877EF22C0808577269746520746F20736563746F72206F6E206472697665AB
S123F98020042066726F6D20048EF966BDF2F9BDF35EB7DF8E8EDF8BBDEC998EF8EEBDF223
S123F9A0F9BDF339B7DF8F8EF8F6BDF2F9BDF339B7DF908EF982BDF2F9BDF32EB6DF8FF660
S123F9C0DF90BDEC881027F8638EF8FFBDF2F9F7DF918EDF91BDF3877EF22C0808466F7255
S123F9E06D6174696E672052414D6469736B2E2E2E200A0D040752616D6469736B206E6F44
S123FA007420616C6C6F636174656421200A0D048D0316F8178EF9DBBDF2F98EDF9D5FA67B
S123FA20808101270C5CC10426F58EF9F5BDF30039F7DF8E8EDF8BBDEC998EDE804F5FA70D
S123FA40805A26FB7FDF8F8601B7DF908EDE80B6DF8FA784B6DF904C812526046C8486011A
S123FA60A701B6DF8FF6DF90BDEC887CDF90B6DF90812526D78601B7DF907CDF8FB6DF8FB2
S123FA80815026C88EDE80864FC624BDEC848EDE806F846F01864FC624BDEC888EDE804F51
S123FAA0C624BDEC848EDE806F846F014FC624BDEC888EDE804FC603BDEC848EDE806F8462
S123FAC06F01CC5241ED8810CC4D44ED8812CC4953ED8814CC4B20ED8816CC0001ED881BDA
S123FAE0CC0101ED881DCC4F24ED881FED8826CC0B1CED88218601A78823861FA788248654
S123FB0005A788257DDFB52621C605BDF3F1BDF3BCA78823C604BDF3F1BDF3BCA78824C616
S123FB2006BDF3F1BDF3BCA788254FC603BDEC888EDE804FC601BDEC848EDE8086AAA7849B
S123FB408655A7014FC601BDEC88390808426F6F74696E6720696E7465726E616C20464C8D
S123FB6045582E2E2E2E048EFB4BBDF2F98ED3E5108EFBCDECA1ED818CD3FD26F78EDE0020
S123FB80108EFBE5ECA1ED818CDE1E26F77DDFB526358639B7CA02C605BDF3F1BDF3BCB706
S123FBA0CC0EC604BDF3F1BDF3BCB7CC0FC606BDF3F1BDF3BCB7CC108ECC00C614BDF3F1BD
S123FBC0A7805CC12126F68ECD007EF458E810F269FFFEFFFEF269F269F269F22CF269E8BC
S123FBE000E823E8217EEC847EEC887EEC8C7EEC907EEC997EECCC7EECD07EECD47EECEC16
S123FC007EECF008084C6F616420524F4D6469736B2C2077616974696E6720666F72206413
S123FC206F776E6C6F61642E2E2E202020202020040808080808048EFC03BDF2F9108E027D
S123FC40008E000010BFE7C05FBDFC88A7805A26F834101F213089FE001F10C43FF7E7D240
S123FC601F10545454545454F7DF914848BBDF91B7E7D335103121108C040026C4108E0007
S123FC800010BFE7C07EF22C34048D0E484848481F898D063404ABE035843404BDE84D3545
S123FCA00480302BF581092F0A81112BED81162EE980073908084C6F616420524F4D646926
S123FCC0736B2066726F6D20636F6E6669672050524F4D2E042020466F756E642053594EF2
S123FCE04320776F72642C206C6F6164696E6720646174612E2E2E0A0D048D0316F52D8E02
S123FD00FCB4BDF2F9B6E7F0B7E7F28E006417F60CB6E7F1840127F98EFCD5BDF2F9108E87
S123FD2002008E000010BFE7C05FB6E7F1840227F9B6E7F0A7805A26F13121108C040026E9
S123FD40E1108E000010BFE7C0390D446973706C61792052544320636F6E74656E74732EC9
S123FD6004072020204E6F2052544320666F756E6421048EFD4ABDF2F97DDFB527098EFDA4
S123FD8061BDF2F97EF22CBDF2EDC602BDF3F1BDFE20863ABDE823C601BDF3F1BDFE208689
S123FDA03ABDE823C600BDF3F1BDFE208620BDE8238620BDE823C604BDF3F18D63862FBD52
S123FDC0E823C605BDF3F18D57862FBDE823C606BDF3F18D4BBDF2EDC6088E00068D28C689
S123FDE00E8E00018D218E00018D1C8E00048D178E000B8D128E00028D0D8E000F8D088E24
S123FE0000108D037EF22CBDF3F15CB7DF9134108EDF91BDF3873510301F26EBBDF2ED398B
S123FE203416B7DF918EDF91BDF37D35960D525443206578616D696E6520616E6420616C1A
S123FE407465722066726F6D20048EFE2DBDF2F97DDFB527098EFD61BDF2F97EF22CBDF3D9
S123FE60391F89C43FBDF2EDF7DF918EDF91BDF387BDF3F1B7DF918EDF91BDF37DBDE821A9
S123FE8081202609BDF339BDF41D5C20D6810D26035C20CF812D1026F3925A20C608085377
S123FEA065742062617564207261746520666F722061636961200420626175642072617481
S123FEC065203D200420426175642072617465206E6F74206B6E6F776E2E048EFE9DBDF208
S123FEE0F9BDF35E8401B7DF918EFEB7BDF2F9BDE8211F89BDE8211E891E028EFF5E5F100B
S123FF00AC84271130075C8CFF9626F38EFEC5BDF2F97EF22C3404A602BDE823A603BDE81D
S123FF2023A604BDE823C60FBDF3F110AE05F6DF915D261010BFE7A23504F7DF9184F0BAD0
S123FF40DF91201210BFE7E2350458585858F7DF91840FBADF91C60FBDF41D7EF22C333004
S123FF603020201458313230302005163234303020028B343830302001463936303020000E
S11AFF80A331393230300051333834303000293537363030001BFF32
S123FFC07EE8007EE8107EE8237EF2697EF2697EF2697EF2697EF2697EF2697EF2697EF259
S113FFE0697EF2697EF2697EF2697EF2697EF26967
S113FFF0F0A4F27AF276F272F26EF5A2F26AF0A44A
S9030000FC
